{
  "_format": "hh-sol-artifact-1",
  "contractName": "ZynqtraBadges",
  "sourceName": "contracts/ZynqtraBadges.sol",
  "abi": [
    {
      "inputs": [],
      "stateMutability": "nonpayable",
      "type": "constructor"
    },
    {
      "anonymous": false,
      "inputs": [
        {
          "indexed": true,
          "internalType": "address",
          "name": "account",
          "type": "address"
        },
        {
          "indexed": true,
          "internalType": "address",
          "name": "operator",
          "type": "address"
        },
        {
          "indexed": false,
          "internalType": "bool",
          "name": "approved",
          "type": "bool"
        }
      ],
      "name": "ApprovalForAll",
      "type": "event"
    },
    {
      "anonymous": false,
      "inputs": [
        {
          "indexed": true,
          "internalType": "address",
          "name": "user",
          "type": "address"
        },
        {
          "indexed": true,
          "internalType": "uint256",
          "name": "badgeId",
          "type": "uint256"
        }
      ],
      "name": "BadgeAwarded",
      "type": "event"
    },
    {
      "anonymous": false,
      "inputs": [
        {
          "indexed": true,
          "internalType": "uint256",
          "name": "badgeId",
          "type": "uint256"
        },
        {
          "indexed": false,
          "internalType": "string",
          "name": "name",
          "type": "string"
        }
      ],
      "name": "BadgeCreated",
      "type": "event"
    },
    {
      "anonymous": false,
      "inputs": [
        {
          "indexed": true,
          "internalType": "address",
          "name": "previousOwner",
          "type": "address"
        },
        {
          "indexed": true,
          "internalType": "address",
          "name": "newOwner",
          "type": "address"
        }
      ],
      "name": "OwnershipTransferred",
      "type": "event"
    },
    {
      "anonymous": false,
      "inputs": [
        {
          "indexed": true,
          "internalType": "address",
          "name": "operator",
          "type": "address"
        },
        {
          "indexed": true,
          "internalType": "address",
          "name": "from",
          "type": "address"
        },
        {
          "indexed": true,
          "internalType": "address",
          "name": "to",
          "type": "address"
        },
        {
          "indexed": false,
          "internalType": "uint256[]",
          "name": "ids",
          "type": "uint256[]"
        },
        {
          "indexed": false,
          "internalType": "uint256[]",
          "name": "values",
          "type": "uint256[]"
        }
      ],
      "name": "TransferBatch",
      "type": "event"
    },
    {
      "anonymous": false,
      "inputs": [
        {
          "indexed": true,
          "internalType": "address",
          "name": "operator",
          "type": "address"
        },
        {
          "indexed": true,
          "internalType": "address",
          "name": "from",
          "type": "address"
        },
        {
          "indexed": true,
          "internalType": "address",
          "name": "to",
          "type": "address"
        },
        {
          "indexed": false,
          "internalType": "uint256",
          "name": "id",
          "type": "uint256"
        },
        {
          "indexed": false,
          "internalType": "uint256",
          "name": "value",
          "type": "uint256"
        }
      ],
      "name": "TransferSingle",
      "type": "event"
    },
    {
      "anonymous": false,
      "inputs": [
        {
          "indexed": false,
          "internalType": "string",
          "name": "value",
          "type": "string"
        },
        {
          "indexed": true,
          "internalType": "uint256",
          "name": "id",
          "type": "uint256"
        }
      ],
      "name": "URI",
      "type": "event"
    },
    {
      "inputs": [
        {
          "internalType": "address",
          "name": "_user",
          "type": "address"
        },
        {
          "internalType": "uint256",
          "name": "_badgeId",
          "type": "uint256"
        }
      ],
      "name": "awardBadge",
      "outputs": [],
      "stateMutability": "nonpayable",
      "type": "function"
    },
    {
      "inputs": [
        {
          "internalType": "uint256",
          "name": "",
          "type": "uint256"
        }
      ],
      "name": "badges",
      "outputs": [
        {
          "internalType": "string",
          "name": "name",
          "type": "string"
        },
        {
          "internalType": "string",
          "name": "description",
          "type": "string"
        },
        {
          "internalType": "string",
          "name": "ipfsMetadata",
          "type": "string"
        },
        {
          "internalType": "uint256",
          "name": "pointsRequired",
          "type": "uint256"
        },
        {
          "internalType": "bool",
          "name": "isActive",
          "type": "bool"
        }
      ],
      "stateMutability": "view",
      "type": "function"
    },
    {
      "inputs": [
        {
          "internalType": "address",
          "name": "account",
          "type": "address"
        },
        {
          "internalType": "uint256",
          "name": "id",
          "type": "uint256"
        }
      ],
      "name": "balanceOf",
      "outputs": [
        {
          "internalType": "uint256",
          "name": "",
          "type": "uint256"
        }
      ],
      "stateMutability": "view",
      "type": "function"
    },
    {
      "inputs": [
        {
          "internalType": "address[]",
          "name": "accounts",
          "type": "address[]"
        },
        {
          "internalType": "uint256[]",
          "name": "ids",
          "type": "uint256[]"
        }
      ],
      "name": "balanceOfBatch",
      "outputs": [
        {
          "internalType": "uint256[]",
          "name": "",
          "type": "uint256[]"
        }
      ],
      "stateMutability": "view",
      "type": "function"
    },
    {
      "inputs": [
        {
          "internalType": "string",
          "name": "_name",
          "type": "string"
        },
        {
          "internalType": "string",
          "name": "_description",
          "type": "string"
        },
        {
          "internalType": "string",
          "name": "_ipfsMetadata",
          "type": "string"
        },
        {
          "internalType": "uint256",
          "name": "_pointsRequired",
          "type": "uint256"
        }
      ],
      "name": "createBadge",
      "outputs": [
        {
          "internalType": "uint256",
          "name": "",
          "type": "uint256"
        }
      ],
      "stateMutability": "nonpayable",
      "type": "function"
    },
    {
      "inputs": [
        {
          "internalType": "uint256",
          "name": "_badgeId",
          "type": "uint256"
        }
      ],
      "name": "getBadge",
      "outputs": [
        {
          "components": [
            {
              "internalType": "string",
              "name": "name",
              "type": "string"
            },
            {
              "internalType": "string",
              "name": "description",
              "type": "string"
            },
            {
              "internalType": "string",
              "name": "ipfsMetadata",
              "type": "string"
            },
            {
              "internalType": "uint256",
              "name": "pointsRequired",
              "type": "uint256"
            },
            {
              "internalType": "bool",
              "name": "isActive",
              "type": "bool"
            }
          ],
          "internalType": "struct ZynqtraBadges.Badge",
          "name": "",
          "type": "tuple"
        }
      ],
      "stateMutability": "view",
      "type": "function"
    },
    {
      "inputs": [
        {
          "internalType": "address",
          "name": "_user",
          "type": "address"
        }
      ],
      "name": "getUserBadges",
      "outputs": [
        {
          "internalType": "uint256[]",
          "name": "",
          "type": "uint256[]"
        }
      ],
      "stateMutability": "view",
      "type": "function"
    },
    {
      "inputs": [
        {
          "internalType": "address",
          "name": "_user",
          "type": "address"
        },
        {
          "internalType": "uint256",
          "name": "_badgeId",
          "type": "uint256"
        }
      ],
      "name": "hasBadge",
      "outputs": [
        {
          "internalType": "bool",
          "name": "",
          "type": "bool"
        }
      ],
      "stateMutability": "view",
      "type": "function"
    },
    {
      "inputs": [
        {
          "internalType": "address",
          "name": "account",
          "type": "address"
        },
        {
          "internalType": "address",
          "name": "operator",
          "type": "address"
        }
      ],
      "name": "isApprovedForAll",
      "outputs": [
        {
          "internalType": "bool",
          "name": "",
          "type": "bool"
        }
      ],
      "stateMutability": "view",
      "type": "function"
    },
    {
      "inputs": [],
      "name": "owner",
      "outputs": [
        {
          "internalType": "address",
          "name": "",
          "type": "address"
        }
      ],
      "stateMutability": "view",
      "type": "function"
    },
    {
      "inputs": [],
      "name": "renounceOwnership",
      "outputs": [],
      "stateMutability": "nonpayable",
      "type": "function"
    },
    {
      "inputs": [
        {
          "internalType": "address",
          "name": "from",
          "type": "address"
        },
        {
          "internalType": "address",
          "name": "to",
          "type": "address"
        },
        {
          "internalType": "uint256[]",
          "name": "ids",
          "type": "uint256[]"
        },
        {
          "internalType": "uint256[]",
          "name": "amounts",
          "type": "uint256[]"
        },
        {
          "internalType": "bytes",
          "name": "data",
          "type": "bytes"
        }
      ],
      "name": "safeBatchTransferFrom",
      "outputs": [],
      "stateMutability": "nonpayable",
      "type": "function"
    },
    {
      "inputs": [
        {
          "internalType": "address",
          "name": "from",
          "type": "address"
        },
        {
          "internalType": "address",
          "name": "to",
          "type": "address"
        },
        {
          "internalType": "uint256",
          "name": "id",
          "type": "uint256"
        },
        {
          "internalType": "uint256",
          "name": "amount",
          "type": "uint256"
        },
        {
          "internalType": "bytes",
          "name": "data",
          "type": "bytes"
        }
      ],
      "name": "safeTransferFrom",
      "outputs": [],
      "stateMutability": "nonpayable",
      "type": "function"
    },
    {
      "inputs": [
        {
          "internalType": "address",
          "name": "operator",
          "type": "address"
        },
        {
          "internalType": "bool",
          "name": "approved",
          "type": "bool"
        }
      ],
      "name": "setApprovalForAll",
      "outputs": [],
      "stateMutability": "nonpayable",
      "type": "function"
    },
    {
      "inputs": [
        {
          "internalType": "bytes4",
          "name": "interfaceId",
          "type": "bytes4"
        }
      ],
      "name": "supportsInterface",
      "outputs": [
        {
          "internalType": "bool",
          "name": "",
          "type": "bool"
        }
      ],
      "stateMutability": "view",
      "type": "function"
    },
    {
      "inputs": [
        {
          "internalType": "address",
          "name": "newOwner",
          "type": "address"
        }
      ],
      "name": "transferOwnership",
      "outputs": [],
      "stateMutability": "nonpayable",
      "type": "function"
    },
    {
      "inputs": [
        {
          "internalType": "uint256",
          "name": "",
          "type": "uint256"
        }
      ],
      "name": "uri",
      "outputs": [
        {
          "internalType": "string",
          "name": "",
          "type": "string"
        }
      ],
      "stateMutability": "view",
      "type": "function"
    },
    {
      "inputs": [
        {
          "internalType": "address",
          "name": "",
          "type": "address"
        },
        {
          "internalType": "uint256",
          "name": "",
          "type": "uint256"
        }
      ],
      "name": "userBadgeList",
      "outputs": [
        {
          "internalType": "uint256",
          "name": "",
          "type": "uint256"
        }
      ],
      "stateMutability": "view",
      "type": "function"
    },
    {
      "inputs": [
        {
          "internalType": "address",
          "name": "",
          "type": "address"
        },
        {
          "internalType": "uint256",
          "name": "",
          "type": "uint256"
        }
      ],
      "name": "userBadges",
      "outputs": [
        {
          "internalType": "bool",
          "name": "",
          "type": "bool"
        }
      ],
      "stateMutability": "view",
      "type": "function"
    }
  ],
  "bytecode": "0x60806040523480156200001157600080fd5b5060405180606001604052806027815260200162004087602791396200003d816200006460201b60201c565b506200005e620000526200007960201b60201c565b6200008160201b60201c565b620004a8565b8060029081620000759190620003c1565b5050565b600033905090565b6000600360009054906101000a900473ffffffffffffffffffffffffffffffffffffffff16905081600360006101000a81548173ffffffffffffffffffffffffffffffffffffffff021916908373ffffffffffffffffffffffffffffffffffffffff1602179055508173ffffffffffffffffffffffffffffffffffffffff168173ffffffffffffffffffffffffffffffffffffffff167f8be0079c531659141344cd1fd0a4f28419497f9722a3daafe3b4186f6b6457e060405160405180910390a35050565b600081519050919050565b7f4e487b7100000000000000000000000000000000000000000000000000000000600052604160045260246000fd5b7f4e487b7100000000000000000000000000000000000000000000000000000000600052602260045260246000fd5b60006002820490506001821680620001c957607f821691505b602082108103620001df57620001de62000181565b5b50919050565b60008190508160005260206000209050919050565b60006020601f8301049050919050565b600082821b905092915050565b600060088302620002497fffffffffffffffffffffffffffffffffffffffffffffffffffffffffffffffff826200020a565b6200025586836200020a565b95508019841693508086168417925050509392505050565b6000819050919050565b6000819050919050565b6000620002a26200029c62000296846200026d565b62000277565b6200026d565b9050919050565b6000819050919050565b620002be8362000281565b620002d6620002cd82620002a9565b84845462000217565b825550505050565b600090565b620002ed620002de565b620002fa818484620002b3565b505050565b5b81811015620003225762000316600082620002e3565b60018101905062000300565b5050565b601f82111562000371576200033b81620001e5565b6200034684620001fa565b8101602085101562000356578190505b6200036e6200036585620001fa565b830182620002ff565b50505b505050565b600082821c905092915050565b6000620003966000198460080262000376565b1980831691505092915050565b6000620003b1838362000383565b9150826002028217905092915050565b620003cc8262000147565b67ffffffffffffffff811115620003e857620003e762000152565b5b620003f48254620001b0565b6200040182828562000326565b600060209050601f83116001811462000439576000841562000424578287015190505b620004308582620003a3565b865550620004a0565b601f1984166200044986620001e5565b60005b8281101562000473578489015182556001820191506020850194506020810190506200044c565b868310156200049357848901516200048f601f89168262000383565b8355505b6001600288020188555050505b505050505050565b613bcf80620004b86000396000f3fe608060405234801561001057600080fd5b50600436106101205760003560e01c8063715018a6116100ad578063da8679bb11610071578063da8679bb14610355578063df91cc2314610385578063e985e9c5146103b5578063f242432a146103e5578063f2fde38b1461040157610120565b8063715018a6146102ad5780638d838622146102b75780638da5cb5b146102e757806398e36d8b14610305578063a22cb4651461033957610120565b80632eb2c2d6116100f45780632eb2c2d6146101d157806337c245fe146101ed57806339087cac1461021d5780634c6a70ce1461024d5780634e1273f41461027d57610120565b8062fdd58e1461012557806301ffc9a7146101555780630e89341c1461018557806317872b21146101b5575b600080fd5b61013f600480360381019061013a9190612297565b61041d565b60405161014c91906122e6565b60405180910390f35b61016f600480360381019061016a9190612359565b6104e5565b60405161017c91906123a1565b60405180910390f35b61019f600480360381019061019a91906123bc565b6105c7565b6040516101ac9190612479565b60405180910390f35b6101cf60048036038101906101ca9190612297565b61065b565b005b6101eb60048036038101906101e69190612698565b610897565b005b61020760048036038101906102029190612767565b610938565b6040516102149190612852565b60405180910390f35b61023760048036038101906102329190612915565b6109cf565b60405161024491906122e6565b60405180910390f35b61026760048036038101906102629190612297565b610ae1565b60405161027491906123a1565b60405180910390f35b61029760048036038101906102929190612a93565b610b49565b6040516102a49190612852565b60405180910390f35b6102b5610c62565b005b6102d160048036038101906102cc91906123bc565b610c76565b6040516102de9190612be8565b60405180910390f35b6102ef610e7e565b6040516102fc9190612c19565b60405180910390f35b61031f600480360381019061031a91906123bc565b610ea8565b604051610330959493929190612c34565b60405180910390f35b610353600480360381019061034e9190612cc8565b611083565b005b61036f600480360381019061036a9190612297565b611099565b60405161037c91906122e6565b60405180910390f35b61039f600480360381019061039a9190612297565b6110ca565b6040516103ac91906123a1565b60405180910390f35b6103cf60048036038101906103ca9190612d08565b6110f9565b6040516103dc91906123a1565b60405180910390f35b6103ff60048036038101906103fa9190612d48565b61118d565b005b61041b60048036038101906104169190612767565b61122e565b005b60008073ffffffffffffffffffffffffffffffffffffffff168373ffffffffffffffffffffffffffffffffffffffff160361048d576040517f08c379a000000000000000000000000000000000000000000000000000000000815260040161048490612e51565b60405180910390fd5b60008083815260200190815260200160002060008473ffffffffffffffffffffffffffffffffffffffff1673ffffffffffffffffffffffffffffffffffffffff16815260200190815260200160002054905092915050565b60007fd9b67a26000000000000000000000000000000000000000000000000000000007bffffffffffffffffffffffffffffffffffffffffffffffffffffffff1916827bffffffffffffffffffffffffffffffffffffffffffffffffffffffff191614806105b057507f0e89341c000000000000000000000000000000000000000000000000000000007bffffffffffffffffffffffffffffffffffffffffffffffffffffffff1916827bffffffffffffffffffffffffffffffffffffffffffffffffffffffff1916145b806105c057506105bf826112b1565b5b9050919050565b6060600280546105d690612ea0565b80601f016020809104026020016040519081016040528092919081815260200182805461060290612ea0565b801561064f5780601f106106245761010080835404028352916020019161064f565b820191906000526020600020905b81548152906001019060200180831161063257829003601f168201915b50505050509050919050565b61066361131b565b6005600082815260200190815260200160002060040160009054906101000a900460ff166106c6576040517f08c379a00000000000000000000000000000000000000000000000000000000081526004016106bd90612f1d565b60405180910390fd5b600660008373ffffffffffffffffffffffffffffffffffffffff1673ffffffffffffffffffffffffffffffffffffffff168152602001908152602001600020600082815260200190815260200160002060009054906101000a900460ff1615610764576040517f08c379a000000000000000000000000000000000000000000000000000000000815260040161075b90612f89565b60405180910390fd5b6001600660008473ffffffffffffffffffffffffffffffffffffffff1673ffffffffffffffffffffffffffffffffffffffff168152602001908152602001600020600083815260200190815260200160002060006101000a81548160ff021916908315150217905550600760008373ffffffffffffffffffffffffffffffffffffffff1673ffffffffffffffffffffffffffffffffffffffff16815260200190815260200160002081908060018154018082558091505060019003906000526020600020016000909190919091505561084f8282600160405180602001604052806000815250611399565b808273ffffffffffffffffffffffffffffffffffffffff167f1538e5a8b6d7b9193ea22abf96eb33aa999b6bc1d9728157028f859e32dc2dbb60405160405180910390a35050565b61089f611549565b73ffffffffffffffffffffffffffffffffffffffff168573ffffffffffffffffffffffffffffffffffffffff1614806108e557506108e4856108df611549565b6110f9565b5b610924576040517f08c379a000000000000000000000000000000000000000000000000000000000815260040161091b9061301b565b60405180910390fd5b6109318585858585611551565b5050505050565b6060600760008373ffffffffffffffffffffffffffffffffffffffff1673ffffffffffffffffffffffffffffffffffffffff1681526020019081526020016000208054806020026020016040519081016040528092919081815260200182805480156109c357602002820191906000526020600020905b8154815260200190600101908083116109af575b50505050509050919050565b60006109d961131b565b6109e36004611872565b60006109ef6004611888565b90506040518060a0016040528087815260200186815260200185815260200184815260200160011515815250600560008381526020019081526020016000206000820151816000019081610a4391906131e7565b506020820151816001019081610a5991906131e7565b506040820151816002019081610a6f91906131e7565b506060820151816003015560808201518160040160006101000a81548160ff021916908315150217905550905050807f2a19b122d7ceb6b21d4ac9a7636241ea8d5068dec98786163aa0de488f4ccc5287604051610acd9190612479565b60405180910390a280915050949350505050565b6000600660008473ffffffffffffffffffffffffffffffffffffffff1673ffffffffffffffffffffffffffffffffffffffff168152602001908152602001600020600083815260200190815260200160002060009054906101000a900460ff16905092915050565b60608151835114610b8f576040517f08c379a0000000000000000000000000000000000000000000000000000000008152600401610b869061332b565b60405180910390fd5b6000835167ffffffffffffffff811115610bac57610bab6124a0565b5b604051908082528060200260200182016040528015610bda5781602001602082028036833780820191505090505b50905060005b8451811015610c5757610c27858281518110610bff57610bfe61334b565b5b6020026020010151858381518110610c1a57610c1961334b565b5b602002602001015161041d565b828281518110610c3a57610c3961334b565b5b60200260200101818152505080610c50906133a9565b9050610be0565b508091505092915050565b610c6a61131b565b610c746000611896565b565b610c7e6121be565b600560008381526020019081526020016000206040518060a0016040529081600082018054610cac90612ea0565b80601f0160208091040260200160405190810160405280929190818152602001828054610cd890612ea0565b8015610d255780601f10610cfa57610100808354040283529160200191610d25565b820191906000526020600020905b815481529060010190602001808311610d0857829003601f168201915b50505050508152602001600182018054610d3e90612ea0565b80601f0160208091040260200160405190810160405280929190818152602001828054610d6a90612ea0565b8015610db75780601f10610d8c57610100808354040283529160200191610db7565b820191906000526020600020905b815481529060010190602001808311610d9a57829003601f168201915b50505050508152602001600282018054610dd090612ea0565b80601f0160208091040260200160405190810160405280929190818152602001828054610dfc90612ea0565b8015610e495780601f10610e1e57610100808354040283529160200191610e49565b820191906000526020600020905b815481529060010190602001808311610e2c57829003601f168201915b50505050508152602001600382015481526020016004820160009054906101000a900460ff1615151515815250509050919050565b6000600360009054906101000a900473ffffffffffffffffffffffffffffffffffffffff16905090565b6005602052806000526040600020600091509050806000018054610ecb90612ea0565b80601f0160208091040260200160405190810160405280929190818152602001828054610ef790612ea0565b8015610f445780601f10610f1957610100808354040283529160200191610f44565b820191906000526020600020905b815481529060010190602001808311610f2757829003601f168201915b505050505090806001018054610f5990612ea0565b80601f0160208091040260200160405190810160405280929190818152602001828054610f8590612ea0565b8015610fd25780601f10610fa757610100808354040283529160200191610fd2565b820191906000526020600020905b815481529060010190602001808311610fb557829003601f168201915b505050505090806002018054610fe790612ea0565b80601f016020809104026020016040519081016040528092919081815260200182805461101390612ea0565b80156110605780601f1061103557610100808354040283529160200191611060565b820191906000526020600020905b81548152906001019060200180831161104357829003601f168201915b5050505050908060030154908060040160009054906101000a900460ff16905085565b61109561108e611549565b838361195c565b5050565b600760205281600052604060002081815481106110b557600080fd5b90600052602060002001600091509150505481565b60066020528160005260406000206020528060005260406000206000915091509054906101000a900460ff1681565b6000600160008473ffffffffffffffffffffffffffffffffffffffff1673ffffffffffffffffffffffffffffffffffffffff16815260200190815260200160002060008373ffffffffffffffffffffffffffffffffffffffff1673ffffffffffffffffffffffffffffffffffffffff16815260200190815260200160002060009054906101000a900460ff16905092915050565b611195611549565b73ffffffffffffffffffffffffffffffffffffffff168573ffffffffffffffffffffffffffffffffffffffff1614806111db57506111da856111d5611549565b6110f9565b5b61121a576040517f08c379a00000000000000000000000000000000000000000000000000000000081526004016112119061301b565b60405180910390fd5b6112278585858585611ac8565b5050505050565b61123661131b565b600073ffffffffffffffffffffffffffffffffffffffff168173ffffffffffffffffffffffffffffffffffffffff16036112a5576040517f08c379a000000000000000000000000000000000000000000000000000000000815260040161129c90613463565b60405180910390fd5b6112ae81611896565b50565b60007f01ffc9a7000000000000000000000000000000000000000000000000000000007bffffffffffffffffffffffffffffffffffffffffffffffffffffffff1916827bffffffffffffffffffffffffffffffffffffffffffffffffffffffff1916149050919050565b611323611549565b73ffffffffffffffffffffffffffffffffffffffff16611341610e7e565b73ffffffffffffffffffffffffffffffffffffffff1614611397576040517f08c379a000000000000000000000000000000000000000000000000000000000815260040161138e906134cf565b60405180910390fd5b565b600073ffffffffffffffffffffffffffffffffffffffff168473ffffffffffffffffffffffffffffffffffffffff1603611408576040517f08c379a00000000000000000000000000000000000000000000000000000000081526004016113ff90613561565b60405180910390fd5b6000611412611549565b9050600061141f85611d63565b9050600061142c85611d63565b905061143d83600089858589611ddd565b8460008088815260200190815260200160002060008973ffffffffffffffffffffffffffffffffffffffff1673ffffffffffffffffffffffffffffffffffffffff168152602001908152602001600020600082825461149c9190613581565b925050819055508673ffffffffffffffffffffffffffffffffffffffff16600073ffffffffffffffffffffffffffffffffffffffff168473ffffffffffffffffffffffffffffffffffffffff167fc3d58168c5ae7397731d063d5bbf3d657854427343f4c083240f7aacaa2d0f62898960405161151a9291906135b5565b60405180910390a461153183600089858589611de5565b61154083600089898989611ded565b50505050505050565b600033905090565b8151835114611595576040517f08c379a000000000000000000000000000000000000000000000000000000000815260040161158c90613650565b60405180910390fd5b600073ffffffffffffffffffffffffffffffffffffffff168473ffffffffffffffffffffffffffffffffffffffff1603611604576040517f08c379a00000000000000000000000000000000000000000000000000000000081526004016115fb906136e2565b60405180910390fd5b600061160e611549565b905061161e818787878787611ddd565b60005b84518110156117cf57600085828151811061163f5761163e61334b565b5b60200260200101519050600085838151811061165e5761165d61334b565b5b60200260200101519050600080600084815260200190815260200160002060008b73ffffffffffffffffffffffffffffffffffffffff1673ffffffffffffffffffffffffffffffffffffffff168152602001908152602001600020549050818110156116ff576040517f08c379a00000000000000000000000000000000000000000000000000000000081526004016116f690613774565b60405180910390fd5b81810360008085815260200190815260200160002060008c73ffffffffffffffffffffffffffffffffffffffff1673ffffffffffffffffffffffffffffffffffffffff168152602001908152602001600020819055508160008085815260200190815260200160002060008b73ffffffffffffffffffffffffffffffffffffffff1673ffffffffffffffffffffffffffffffffffffffff16815260200190815260200160002060008282546117b49190613581565b92505081905550505050806117c8906133a9565b9050611621565b508473ffffffffffffffffffffffffffffffffffffffff168673ffffffffffffffffffffffffffffffffffffffff168273ffffffffffffffffffffffffffffffffffffffff167f4a39dc06d4c0dbc64b70af90fd698a233a518aa5d07e595d983b8c0526c8f7fb8787604051611846929190613794565b60405180910390a461185c818787878787611de5565b61186a818787878787611fc4565b505050505050565b6001816000016000828254019250508190555050565b600081600001549050919050565b6000600360009054906101000a900473ffffffffffffffffffffffffffffffffffffffff16905081600360006101000a81548173ffffffffffffffffffffffffffffffffffffffff021916908373ffffffffffffffffffffffffffffffffffffffff1602179055508173ffffffffffffffffffffffffffffffffffffffff168173ffffffffffffffffffffffffffffffffffffffff167f8be0079c531659141344cd1fd0a4f28419497f9722a3daafe3b4186f6b6457e060405160405180910390a35050565b8173ffffffffffffffffffffffffffffffffffffffff168373ffffffffffffffffffffffffffffffffffffffff16036119ca576040517f08c379a00000000000000000000000000000000000000000000000000000000081526004016119c19061383d565b60405180910390fd5b80600160008573ffffffffffffffffffffffffffffffffffffffff1673ffffffffffffffffffffffffffffffffffffffff16815260200190815260200160002060008473ffffffffffffffffffffffffffffffffffffffff1673ffffffffffffffffffffffffffffffffffffffff16815260200190815260200160002060006101000a81548160ff0219169083151502179055508173ffffffffffffffffffffffffffffffffffffffff168373ffffffffffffffffffffffffffffffffffffffff167f17307eab39ab6107e8899845ad3d59bd9653f200f220920489ca2b5937696c3183604051611abb91906123a1565b60405180910390a3505050565b600073ffffffffffffffffffffffffffffffffffffffff168473ffffffffffffffffffffffffffffffffffffffff1603611b37576040517f08c379a0000000000000000000000000000000000000000000000000000000008152600401611b2e906136e2565b60405180910390fd5b6000611b41611549565b90506000611b4e85611d63565b90506000611b5b85611d63565b9050611b6b838989858589611ddd565b600080600088815260200190815260200160002060008a73ffffffffffffffffffffffffffffffffffffffff1673ffffffffffffffffffffffffffffffffffffffff16815260200190815260200160002054905085811015611c02576040517f08c379a0000000000000000000000000000000000000000000000000000000008152600401611bf990613774565b60405180910390fd5b85810360008089815260200190815260200160002060008b73ffffffffffffffffffffffffffffffffffffffff1673ffffffffffffffffffffffffffffffffffffffff168152602001908152602001600020819055508560008089815260200190815260200160002060008a73ffffffffffffffffffffffffffffffffffffffff1673ffffffffffffffffffffffffffffffffffffffff1681526020019081526020016000206000828254611cb79190613581565b925050819055508773ffffffffffffffffffffffffffffffffffffffff168973ffffffffffffffffffffffffffffffffffffffff168573ffffffffffffffffffffffffffffffffffffffff167fc3d58168c5ae7397731d063d5bbf3d657854427343f4c083240f7aacaa2d0f628a8a604051611d349291906135b5565b60405180910390a4611d4a848a8a86868a611de5565b611d58848a8a8a8a8a611ded565b505050505050505050565b60606000600167ffffffffffffffff811115611d8257611d816124a0565b5b604051908082528060200260200182016040528015611db05781602001602082028036833780820191505090505b5090508281600081518110611dc857611dc761334b565b5b60200260200101818152505080915050919050565b505050505050565b505050505050565b611e0c8473ffffffffffffffffffffffffffffffffffffffff1661219b565b15611fbc578373ffffffffffffffffffffffffffffffffffffffff1663f23a6e6187878686866040518663ffffffff1660e01b8152600401611e529594939291906138b2565b6020604051808303816000875af1925050508015611e8e57506040513d601f19601f82011682018060405250810190611e8b9190613921565b60015b611f3357611e9a61395b565b806308c379a003611ef65750611eae61397d565b80611eb95750611ef8565b806040517f08c379a0000000000000000000000000000000000000000000000000000000008152600401611eed9190612479565b60405180910390fd5b505b6040517f08c379a0000000000000000000000000000000000000000000000000000000008152600401611f2a90613a7f565b60405180910390fd5b63f23a6e6160e01b7bffffffffffffffffffffffffffffffffffffffffffffffffffffffff1916817bffffffffffffffffffffffffffffffffffffffffffffffffffffffff191614611fba576040517f08c379a0000000000000000000000000000000000000000000000000000000008152600401611fb190613b11565b60405180910390fd5b505b505050505050565b611fe38473ffffffffffffffffffffffffffffffffffffffff1661219b565b15612193578373ffffffffffffffffffffffffffffffffffffffff1663bc197c8187878686866040518663ffffffff1660e01b8152600401612029959493929190613b31565b6020604051808303816000875af192505050801561206557506040513d601f19601f820116820180604052508101906120629190613921565b60015b61210a5761207161395b565b806308c379a0036120cd575061208561397d565b8061209057506120cf565b806040517f08c379a00000000000000000000000000000000000000000000000000000000081526004016120c49190612479565b60405180910390fd5b505b6040517f08c379a000000000000000000000000000000000000000000000000000000000815260040161210190613a7f565b60405180910390fd5b63bc197c8160e01b7bffffffffffffffffffffffffffffffffffffffffffffffffffffffff1916817bffffffffffffffffffffffffffffffffffffffffffffffffffffffff191614612191576040517f08c379a000000000000000000000000000000000000000000000000000000000815260040161218890613b11565b60405180910390fd5b505b505050505050565b6000808273ffffffffffffffffffffffffffffffffffffffff163b119050919050565b6040518060a00160405280606081526020016060815260200160608152602001600081526020016000151581525090565b6000604051905090565b600080fd5b600080fd5b600073ffffffffffffffffffffffffffffffffffffffff82169050919050565b600061222e82612203565b9050919050565b61223e81612223565b811461224957600080fd5b50565b60008135905061225b81612235565b92915050565b6000819050919050565b61227481612261565b811461227f57600080fd5b50565b6000813590506122918161226b565b92915050565b600080604083850312156122ae576122ad6121f9565b5b60006122bc8582860161224c565b92505060206122cd85828601612282565b9150509250929050565b6122e081612261565b82525050565b60006020820190506122fb60008301846122d7565b92915050565b60007fffffffff0000000000000000000000000000000000000000000000000000000082169050919050565b61233681612301565b811461234157600080fd5b50565b6000813590506123538161232d565b92915050565b60006020828403121561236f5761236e6121f9565b5b600061237d84828501612344565b91505092915050565b60008115159050919050565b61239b81612386565b82525050565b60006020820190506123b66000830184612392565b92915050565b6000602082840312156123d2576123d16121f9565b5b60006123e084828501612282565b91505092915050565b600081519050919050565b600082825260208201905092915050565b60005b83811015612423578082015181840152602081019050612408565b60008484015250505050565b6000601f19601f8301169050919050565b600061244b826123e9565b61245581856123f4565b9350612465818560208601612405565b61246e8161242f565b840191505092915050565b600060208201905081810360008301526124938184612440565b905092915050565b600080fd5b7f4e487b7100000000000000000000000000000000000000000000000000000000600052604160045260246000fd5b6124d88261242f565b810181811067ffffffffffffffff821117156124f7576124f66124a0565b5b80604052505050565b600061250a6121ef565b905061251682826124cf565b919050565b600067ffffffffffffffff821115612536576125356124a0565b5b602082029050602081019050919050565b600080fd5b600061255f61255a8461251b565b612500565b9050808382526020820190506020840283018581111561258257612581612547565b5b835b818110156125ab57806125978882612282565b845260208401935050602081019050612584565b5050509392505050565b600082601f8301126125ca576125c961249b565b5b81356125da84826020860161254c565b91505092915050565b600080fd5b600067ffffffffffffffff821115612603576126026124a0565b5b61260c8261242f565b9050602081019050919050565b82818337600083830152505050565b600061263b612636846125e8565b612500565b905082815260208101848484011115612657576126566125e3565b5b612662848285612619565b509392505050565b600082601f83011261267f5761267e61249b565b5b813561268f848260208601612628565b91505092915050565b600080600080600060a086880312156126b4576126b36121f9565b5b60006126c28882890161224c565b95505060206126d38882890161224c565b945050604086013567ffffffffffffffff8111156126f4576126f36121fe565b5b612700888289016125b5565b935050606086013567ffffffffffffffff811115612721576127206121fe565b5b61272d888289016125b5565b925050608086013567ffffffffffffffff81111561274e5761274d6121fe565b5b61275a8882890161266a565b9150509295509295909350565b60006020828403121561277d5761277c6121f9565b5b600061278b8482850161224c565b91505092915050565b600081519050919050565b600082825260208201905092915050565b6000819050602082019050919050565b6127c981612261565b82525050565b60006127db83836127c0565b60208301905092915050565b6000602082019050919050565b60006127ff82612794565b612809818561279f565b9350612814836127b0565b8060005b8381101561284557815161282c88826127cf565b9750612837836127e7565b925050600181019050612818565b5085935050505092915050565b6000602082019050818103600083015261286c81846127f4565b905092915050565b600067ffffffffffffffff82111561288f5761288e6124a0565b5b6128988261242f565b9050602081019050919050565b60006128b86128b384612874565b612500565b9050828152602081018484840111156128d4576128d36125e3565b5b6128df848285612619565b509392505050565b600082601f8301126128fc576128fb61249b565b5b813561290c8482602086016128a5565b91505092915050565b6000806000806080858703121561292f5761292e6121f9565b5b600085013567ffffffffffffffff81111561294d5761294c6121fe565b5b612959878288016128e7565b945050602085013567ffffffffffffffff81111561297a576129796121fe565b5b612986878288016128e7565b935050604085013567ffffffffffffffff8111156129a7576129a66121fe565b5b6129b3878288016128e7565b92505060606129c487828801612282565b91505092959194509250565b600067ffffffffffffffff8211156129eb576129ea6124a0565b5b602082029050602081019050919050565b6000612a0f612a0a846129d0565b612500565b90508083825260208201905060208402830185811115612a3257612a31612547565b5b835b81811015612a5b5780612a47888261224c565b845260208401935050602081019050612a34565b5050509392505050565b600082601f830112612a7a57612a7961249b565b5b8135612a8a8482602086016129fc565b91505092915050565b60008060408385031215612aaa57612aa96121f9565b5b600083013567ffffffffffffffff811115612ac857612ac76121fe565b5b612ad485828601612a65565b925050602083013567ffffffffffffffff811115612af557612af46121fe565b5b612b01858286016125b5565b9150509250929050565b600082825260208201905092915050565b6000612b27826123e9565b612b318185612b0b565b9350612b41818560208601612405565b612b4a8161242f565b840191505092915050565b612b5e81612386565b82525050565b600060a0830160008301518482036000860152612b818282612b1c565b91505060208301518482036020860152612b9b8282612b1c565b91505060408301518482036040860152612bb58282612b1c565b9150506060830151612bca60608601826127c0565b506080830151612bdd6080860182612b55565b508091505092915050565b60006020820190508181036000830152612c028184612b64565b905092915050565b612c1381612223565b82525050565b6000602082019050612c2e6000830184612c0a565b92915050565b600060a0820190508181036000830152612c4e8188612440565b90508181036020830152612c628187612440565b90508181036040830152612c768186612440565b9050612c8560608301856122d7565b612c926080830184612392565b9695505050505050565b612ca581612386565b8114612cb057600080fd5b50565b600081359050612cc281612c9c565b92915050565b60008060408385031215612cdf57612cde6121f9565b5b6000612ced8582860161224c565b9250506020612cfe85828601612cb3565b9150509250929050565b60008060408385031215612d1f57612d1e6121f9565b5b6000612d2d8582860161224c565b9250506020612d3e8582860161224c565b9150509250929050565b600080600080600060a08688031215612d6457612d636121f9565b5b6000612d728882890161224c565b9550506020612d838882890161224c565b9450506040612d9488828901612282565b9350506060612da588828901612282565b925050608086013567ffffffffffffffff811115612dc657612dc56121fe565b5b612dd28882890161266a565b9150509295509295909350565b7f455243313135353a2061646472657373207a65726f206973206e6f742061207660008201527f616c6964206f776e657200000000000000000000000000000000000000000000602082015250565b6000612e3b602a836123f4565b9150612e4682612ddf565b604082019050919050565b60006020820190508181036000830152612e6a81612e2e565b9050919050565b7f4e487b7100000000000000000000000000000000000000000000000000000000600052602260045260246000fd5b60006002820490506001821680612eb857607f821691505b602082108103612ecb57612eca612e71565b5b50919050565b7f4261646765206973206e6f742061637469766500000000000000000000000000600082015250565b6000612f076013836123f4565b9150612f1282612ed1565b602082019050919050565b60006020820190508181036000830152612f3681612efa565b9050919050565b7f5573657220616c72656164792068617320746869732062616467650000000000600082015250565b6000612f73601b836123f4565b9150612f7e82612f3d565b602082019050919050565b60006020820190508181036000830152612fa281612f66565b9050919050565b7f455243313135353a2063616c6c6572206973206e6f7420746f6b656e206f776e60008201527f6572206f7220617070726f766564000000000000000000000000000000000000602082015250565b6000613005602e836123f4565b915061301082612fa9565b604082019050919050565b6000602082019050818103600083015261303481612ff8565b9050919050565b60008190508160005260206000209050919050565b60006020601f8301049050919050565b600082821b905092915050565b60006008830261309d7fffffffffffffffffffffffffffffffffffffffffffffffffffffffffffffffff82613060565b6130a78683613060565b95508019841693508086168417925050509392505050565b6000819050919050565b60006130e46130df6130da84612261565b6130bf565b612261565b9050919050565b6000819050919050565b6130fe836130c9565b61311261310a826130eb565b84845461306d565b825550505050565b600090565b61312761311a565b6131328184846130f5565b505050565b5b818110156131565761314b60008261311f565b600181019050613138565b5050565b601f82111561319b5761316c8161303b565b61317584613050565b81016020851015613184578190505b61319861319085613050565b830182613137565b50505b505050565b600082821c905092915050565b60006131be600019846008026131a0565b1980831691505092915050565b60006131d783836131ad565b9150826002028217905092915050565b6131f0826123e9565b67ffffffffffffffff811115613209576132086124a0565b5b6132138254612ea0565b61321e82828561315a565b600060209050601f831160018114613251576000841561323f578287015190505b61324985826131cb565b8655506132b1565b601f19841661325f8661303b565b60005b8281101561328757848901518255600182019150602085019450602081019050613262565b868310156132a457848901516132a0601f8916826131ad565b8355505b6001600288020188555050505b505050505050565b7f455243313135353a206163636f756e747320616e6420696473206c656e67746860008201527f206d69736d617463680000000000000000000000000000000000000000000000602082015250565b60006133156029836123f4565b9150613320826132b9565b604082019050919050565b6000602082019050818103600083015261334481613308565b9050919050565b7f4e487b7100000000000000000000000000000000000000000000000000000000600052603260045260246000fd5b7f4e487b7100000000000000000000000000000000000000000000000000000000600052601160045260246000fd5b60006133b482612261565b91507fffffffffffffffffffffffffffffffffffffffffffffffffffffffffffffffff82036133e6576133e561337a565b5b600182019050919050565b7f4f776e61626c653a206e6577206f776e657220697320746865207a65726f206160008201527f6464726573730000000000000000000000000000000000000000000000000000602082015250565b600061344d6026836123f4565b9150613458826133f1565b604082019050919050565b6000602082019050818103600083015261347c81613440565b9050919050565b7f4f776e61626c653a2063616c6c6572206973206e6f7420746865206f776e6572600082015250565b60006134b96020836123f4565b91506134c482613483565b602082019050919050565b600060208201905081810360008301526134e8816134ac565b9050919050565b7f455243313135353a206d696e7420746f20746865207a65726f2061646472657360008201527f7300000000000000000000000000000000000000000000000000000000000000602082015250565b600061354b6021836123f4565b9150613556826134ef565b604082019050919050565b6000602082019050818103600083015261357a8161353e565b9050919050565b600061358c82612261565b915061359783612261565b92508282019050808211156135af576135ae61337a565b5b92915050565b60006040820190506135ca60008301856122d7565b6135d760208301846122d7565b9392505050565b7f455243313135353a2069647320616e6420616d6f756e7473206c656e6774682060008201527f6d69736d61746368000000000000000000000000000000000000000000000000602082015250565b600061363a6028836123f4565b9150613645826135de565b604082019050919050565b600060208201905081810360008301526136698161362d565b9050919050565b7f455243313135353a207472616e7366657220746f20746865207a65726f20616460008201527f6472657373000000000000000000000000000000000000000000000000000000602082015250565b60006136cc6025836123f4565b91506136d782613670565b604082019050919050565b600060208201905081810360008301526136fb816136bf565b9050919050565b7f455243313135353a20696e73756666696369656e742062616c616e636520666f60008201527f72207472616e7366657200000000000000000000000000000000000000000000602082015250565b600061375e602a836123f4565b915061376982613702565b604082019050919050565b6000602082019050818103600083015261378d81613751565b9050919050565b600060408201905081810360008301526137ae81856127f4565b905081810360208301526137c281846127f4565b90509392505050565b7f455243313135353a2073657474696e6720617070726f76616c2073746174757360008201527f20666f722073656c660000000000000000000000000000000000000000000000602082015250565b60006138276029836123f4565b9150613832826137cb565b604082019050919050565b600060208201905081810360008301526138568161381a565b9050919050565b600081519050919050565b600082825260208201905092915050565b60006138848261385d565b61388e8185613868565b935061389e818560208601612405565b6138a78161242f565b840191505092915050565b600060a0820190506138c76000830188612c0a565b6138d46020830187612c0a565b6138e160408301866122d7565b6138ee60608301856122d7565b81810360808301526139008184613879565b90509695505050505050565b60008151905061391b8161232d565b92915050565b600060208284031215613937576139366121f9565b5b60006139458482850161390c565b91505092915050565b60008160e01c9050919050565b600060033d111561397a5760046000803e61397760005161394e565b90505b90565b600060443d10613a0a5761398f6121ef565b60043d036004823e80513d602482011167ffffffffffffffff821117156139b7575050613a0a565b808201805167ffffffffffffffff8111156139d55750505050613a0a565b80602083010160043d0385018111156139f2575050505050613a0a565b613a01826020018501866124cf565b82955050505050505b90565b7f455243313135353a207472616e7366657220746f206e6f6e2d4552433131353560008201527f526563656976657220696d706c656d656e746572000000000000000000000000602082015250565b6000613a696034836123f4565b9150613a7482613a0d565b604082019050919050565b60006020820190508181036000830152613a9881613a5c565b9050919050565b7f455243313135353a204552433131353552656365697665722072656a6563746560008201527f6420746f6b656e73000000000000000000000000000000000000000000000000602082015250565b6000613afb6028836123f4565b9150613b0682613a9f565b604082019050919050565b60006020820190508181036000830152613b2a81613aee565b9050919050565b600060a082019050613b466000830188612c0a565b613b536020830187612c0a565b8181036040830152613b6581866127f4565b90508181036060830152613b7981856127f4565b90508181036080830152613b8d8184613879565b9050969550505050505056fea2646970667358221220e7dc764325d2b3ca0e6f7a8f1a7ccaafb0b56fa55dff67a3ed6a23bf4f4d47e164736f6c6343000813003368747470733a2f2f6170692e7a796e717472612e636f6d2f62616467652f7b69647d2e6a736f6e",
  "linkReferences": {},
  "deployedLinkReferences": {}
}